:020000040800F2
:10000000600600200D0200084B0200084D020008A7
:100010004F020008510200085302000800000000CF
:100020000000000000000000000000005502000871
:100030005702000800000000590200085B02000897
:100040005D0200085D0200085D0200085D02000814
:100050005D0200085D0200085D0200085D02000804
:100060005D0200085D0200085D0200085D020008F4
:100070005D0200085D0200085D0200085D020008E4
:100080005D0200085D0200085D0200085D020008D4
:100090005D0200085D0200085D0200085D020008C4
:1000A0005D0200085D0200085D0200085D020008B4
:1000B0005D0200085D0200085D0200085D020008A4
:1000C0005D0200085D0200085D0200085D02000894
:1000D0005D0200085D0200085D0200085D02000884
:1000E0005D0200085D0200085D0200085D02000874
:1000F0005D0200085D0200085D0200085D02000864
:100100005D0200085D0200085D0200085D02000853
:100110005D0200085D0200085D0200085D02000843
:100120005D0200085D0200085D0200085D02000833
:100130005D0200085D0200085D0200085D02000823
:100140005D0200085D0200085D0200085D02000813
:100150005D0200085D0200085D0200085D02000803
:100160005D0200085D0200085D0200085D020008F3
:100170005D0200085D0200085D020008000000004A
:100180005D0200085D02000800F002F800F02EF8A1
:100190000AA090E8000C82448344AAF10107DA45E2
:1001A00001D100F023F8AFF2090EBAE80F0013F006
:1001B000010F18BFFB1A43F001031847A804000001
:1001C000B80400000023002400250026103A28BFB0
:1001D00078C1FBD8520728BF30C148BF0B607047B9
:1001E0001FB500F032FA1FBD10B510BD00F057F872
:1001F0001146FFF7F5FF00F0FBF900F075F803B4C6
:10020000FFF7F2FF03BC00F07DF800001748184923
:10021000184B99423CBF50F8042B41F8042BF8D3FB
:10022000154B16494FF000028B4238BF43F8042BA0
:10023000FAD3DFF84C00016841F470010160BFF3AC
:100240004F8FBFF36F8F0F480047FEE7FEE7FEE7D3
:10025000FEE7FEE7FEE7FEE7FEE7FEE7FEE700005B
:1002600009480A490A4A0B4B704700007406000807
:100270000000002000000020000000206006002098
:1002800088ED00E089010008600000206006002081
:10029000600200206002002070477047704775467A
:1002A00000F02CF8AE4605006946534620F00700E2
:1002B000854618B020B5FFF7D3FFBDE820404FF0CA
:1002C00000064FF000074FF000084FF0000BAC465F
:1002D000ACE8C009ACE8C009ACE8C009ACE8C009AA
:1002E00021F007018D46704710B50446AFF300803A
:1002F0002046BDE81040FFF782BF0000004870476D
:100300000000002001491820ABBEFEE726000200D5
:10031000704700000421C4F20101086840F48070B5
:10032000086040F20831C5F20401086840F480001A
:100330000860086820F470100860086820F44030F5
:100340000860086840F480300860086820F01F00EA
:100350000860704780B582B041F24C01C4F20201DE
:10036000086840F40050086041F22C01C4F2020118
:10037000086840F400500860086820F400500860E5
:1003800000F050F8FFF7C6FF00F06EF80821C5F244
:100390000401086820F0010008600C22C5F2040284
:1003A0000192106820F018001060106820F0200002
:1003B00010603023C5F20403186820F00F001860A5
:1003C000186820F4F8601860186840F4C07018606D
:1003D000B023C5F20403186820F04000186014230D
:1003E000C5F20403186820F4E0101860186840F49F
:1003F00040201860106820F400501060106820F44D
:1004000040601060086840F001000860FFE70020CD
:10041000C5F204000068C00708B9FFE7F7E702B0BB
:1004200080BD000041F24C01C4F20201086840F0B6
:10043000010008604FF09041086820F00C0008604F
:10044000086840F00C0008600C21C4F60001086840
:1004500020F4406008602C21C4F60001086840F0D8
:10046000020008607047000081B00820C5F2040057
:1004700000688000002808D5FFE70821C5F20401C4
:10048000086820F000500860FFE70821C5F2040169
:10049000086840F0805008604FF4C8600090FFE7A3
:1004A000009820B1FFE7009801380090F8E701B00C
:1004B0007047000041F24C01C4F20201086840F0AC
:1004C0000100086041F25801C4F20201086840F0DE
:1004D000010008604FF09041086820F44060086017
:1004E000086840F4006008600821C4F6000108684C
:1004F00020F440600860086840F4406008600C2107
:10050000C4F60001086820F4406008602021C4F6A9
:100510000001086820F470000860086840F480104A
:1005200008604FF08041086820F010000860282221
:10053000C4F20002012010602C22C4F2000241F635
:100540003F7010601822C4F2000210684FF68F73DB
:10055000CFF6FE7318401060106840F06000106025
:10056000106840F0080010602022C4F200021068F9
:1005700020F002001060106840F00100106034228A
:10058000C4F2000200201060086840F0010008601A
:100590007047000081B041F20801C4F2020108680E
:1005A00020F0030008600868086041F20001C4F20E
:1005B00002010091086820F0F0000860086840F02F
:1005C00070000860086840F008000860086840F0A3
:1005D00004000860FFE741F20000C4F20200006876
:1005E0008007002801D4FFE7F5E701B0704700005D
:1005F00080B582B000200190FFF7CCFFFFF7AAFE84
:10060000FFF758FFFFE70821C5F20401086840F032
:1006100004000860FFE70020C5F2040000684007FE
:10062000002801D4FFE7F6E74020C5F20400006887
:10063000009000982C21C4F2000109684843000B87
:100640003421C4F200010860DDE7F1EE100A4FF634
:10065000FF71C0F2C03120EA010040F04070E1EECD
:10066000100A7047740600080000002060060000B1
:04067000C4010008B9
:040000050800018965
:00000001FF
